:100000000C942A000C9447000C9447000C94470071
:100010000C9462120C942F120C9447000C94FC1157
:100020000C9447000C94C9110C9496110C94631114
:100030000C9447000C9447000C9447000C94470024
:100040000C9447000C9447000C9447000C94470014
:100050000C94470011241FBECFE5D8E0DEBFCDBF12
:1000600011E0A0E6B0E0EEEEF2E302C005900D92E2
:10007000AE33B107D9F711E0AEE3B1E001C01D9294
:10008000A634B107E1F70E9425090C9475190C9468
:100090000000EF92FF920F931F937B018C0120E0F1
:1000A00030E040E05FE40E94490388238CF0C801FF
:1000B000B70120E030E040E05FE40E94C1010E940F
:1000C000A9039B01AC01205030404040504806C07D
:1000D000C801B7010E94A9039B01AC01B901CA0183
:1000E0001F910F91FF90EF900895A0E0B0E0EBE733
:1000F000F0E00C94F918DC012B01FA019C9192308C
:1001000008F439C1EB018881823008F433C194309E
:1001100069F4843009F02FC111969C91119789815F
:10012000981709F428C1A5E1B1E025C1843009F48C
:1001300021C18230A9F4923009F01DC19A01AD01AC
:1001400088E0EA010990AE01E90109929E0181501F
:10015000C1F7E201898111969C918923818308C1AD
:10016000923009F407C112962D903C901397EB0141
:100170008A819B811496AD90BD90CD90DC901797AD
:10018000EC80FD800E811F819101281B390BB90184
:1001900037FF04C066277727621B730B6032710537
:1001A0000CF061C0121613066CF537014801062EDB
:1001B00004C096948794779467940A94D2F721E0C8
:1001C00030E040E050E004C0220F331F441F551FB1
:1001D0006A95D2F721503040404050402E213F21B7
:1001E00040235123211531054105510521F021E01E
:1001F00030E040E050E079018A01E628F72808293C
:1002000019293CC0232BD1F1260E371E350146019A
:10021000062E04C096948794779467940A94D2F734
:1002200021E030E040E050E004C0220F331F441FC3
:10023000551F6A95D2F721503040404050402A2146
:100240003B214C215D21211531054105510521F04E
:1002500021E030E040E050E059016A01A628B728CB
:10026000C828D9280BC0821593052CF01C01AA249C
:10027000BB24650103C0EE24FF24870111969C91E5
:10028000D20111968C91981709F445C0992339F041
:10029000A80197012A193B094C095D0906C0A6016E
:1002A00095012E193F09400B510B57FD08C01182D3
:1002B0003382228224833583468357831DC081E0A5
:1002C00081833382228288279927DC01821B930B4A
:1002D000A40BB50B84839583A683B7830DC0220F2F
:1002E000331F441F551F24833583468357838281E0
:1002F000938101979383828324813581468157813D
:10030000DA01C9010197A109B1098F5F9F4FAF4F72
:10031000BF4328F30BC0918333822282EA0CFB1C7B
:100320000C1D1D1DE482F5820683178383E0808304
:10033000248135814681578157FF1AC0C901AA27F8
:1003400097FDA095BA2F81709070A070B0705695EF
:10035000479537952795822B932BA42BB52B848318
:100360009583A683B7838281938101969383828349
:10037000DF0101C0D201CD01CDB7DEB7E2E10C94BF
:100380001519A0E2B0E0E7ECF1E00C9405196983DF
:100390007A838B839C832D833E834F835887E9E048
:1003A000EE2EF12CEC0EFD1ECE010196B7010E943F
:1003B000D2048E010F5E1F4FCE010596B8010E9438
:1003C000D2048A8991E089278A8BC701B801AE01DE
:1003D000475E5F4F0E9475000E94FD03A096E6E015
:1003E0000C942119A0E2B0E0E8EFF1E00C940519BB
:1003F00069837A838B839C832D833E834F835887C5
:10040000F9E0EF2EF12CEC0EFD1ECE010196B701A6
:100410000E94D2048E010F5E1F4FCE010596B801D7
:100420000E94D204C701B801AE01475E5F4F0E942F
:1004300075000E94FD03A096E6E00C942119A0E24D
:10044000B0E0E5E2F2E00C94F91869837A838B83DB
:100450009C832D833E834F835887CE010196BE0136
:10046000675F7F4F0E94D204CE010596BE016F5E8A
:100470007F4F0E94D2049985923088F0898982301A
:10048000C8F0943019F4823051F404C0843029F457
:10049000923081F485E191E0C6C0923049F420E0C9
:1004A0009A858A89981321E02A87CE010996BBC0D4
:1004B000823049F420E09A858A89981321E02A8BBA
:1004C000CE014196B0C02D843E844F8458886D88FB
:1004D0007E888F88988CEE24FF248701AA24BB2471
:1004E000650140E050E060E070E0E0E0F0E0C10174
:1004F00081709070892BE9F0E60CF71C081D191D1E
:100500009A01AB012A0D3B1D4C1D5D1D80E090E062
:10051000A0E0B0E0E614F7040805190520F481E036
:1005200090E0A0E0B0E0BA01A901480F591F6A1F8E
:100530007B1FAA0CBB1CCC1CDD1C97FE08C081E0F5
:1005400090E0A0E0B0E0A82AB92ACA2ADB2A3196B6
:10055000E032F10549F0660C771C881C991C569412
:10056000479437942794C3CFFA85EA892B893C892D
:100570008B859C85280F391F2E5F3F4F17C0CA01FE
:1005800081709070892B61F016950795F794E79428
:1005900080E090E0A0E0B0E8E82AF92A0A2B1B2BC3
:1005A00076956795579547952F5F3F4F77FDE7CF36
:1005B0000CC0440F551F661F771F17FD4160EE0CDE
:1005C000FF1C001F111F21503040403090E05907A0
:1005D00090E0690790E4790760F32B8F3C8FDB0193
:1005E000CA018F779070A070B07080349105A1051A
:1005F000B10561F447FD0AC0E114F10401051105DC
:1006000029F0405C5F4F6F4F7F4F40781A8EFE1786
:1006100011F081E08A8F4D8F5E8F6F8F78A383E01A
:10062000898FCE0149960E94FD03A096E2E10C94C9
:100630001519A8E1B0E0EFE1F3E00C940519698326
:100640007A838B839C832D833E834F83588789E0F5
:10065000E82EF12CEC0EFD1ECE010196B7010E9492
:10066000D2048E010F5E1F4FCE010596B8010E9485
:10067000D2048985823040F08989823028F0C70110
:10068000B8010E944A0501C08FEF6896E6E00C941D
:100690002119A8E1B0E0EFE4F3E00C9405196983B7
:1006A0007A838B839C832D833E834F83588789E095
:1006B000E82EF12CEC0EFD1ECE010196B7010E9432
:1006C000D2048E010F5E1F4FCE010596B8010E9425
:1006D000D2048985823040F08989823028F0C701B0
:1006E000B8010E944A0501C08FEF6896E6E00C94BD
:1006F0002119A8E1B0E0EFE7F3E00C940519698354
:100700007A838B839C832D833E834F83588789E034
:10071000E82EF12CEC0EFD1ECE010196B7010E94D1
:10072000D2048E010F5E1F4FCE010596B8010E94C4
:10073000D2048985823040F08989823028F0C7014F
:10074000B8010E944A0501C081E06896E6E00C9479
:100750002119ACE0B0E0EFEAF3E00C9409196983E9
:100760007A838B839C83CE010196BE016B5F7F4FA2
:100770000E94D2048D81823061F1823050F1843048
:1007800021F48E81882351F12EC02F81388537FDC9
:1007900020C06E812F3131051CF06623F9F023C093
:1007A0008EE190E0821B930B29853A854B855C8511
:1007B00004C056954795379527958A95D2F76623B5
:1007C000B1F050954095309521953F4F4F4F5F4F79
:1007D0000EC020E030E040E050E009C02FEF3FEFD6
:1007E0004FEF5FE704C020E030E040E050E8B9019F
:1007F000CA012C96E2E00C942519DF92EF92FF9249
:100800000F931F93FC01E480F58006811781D1804E
:100810008081823048F480E090E0A0E1B0E0E82AF6
:10082000F92A0A2B1B2BA5C0843009F49FC0823003
:1008300021F4EE24FF24870105C0E114F104010531
:10084000110519F4E0E0F0E096C0628173819FEF3A
:10085000623879070CF05BC022E83FEF261B370BAC
:100860002A3131052CF020E030E040E050E02AC091
:10087000B801A701022E04C0769567955795479554
:100880000A94D2F781E090E0A0E0B0E004C0880FC5
:10089000991FAA1FBB1F2A95D2F70197A109B10979
:1008A0008E219F21A023B1230097A105B10521F03E
:1008B00081E090E0A0E0B0E09A01AB01282B392B59
:1008C0004A2B5B2BDA01C9018F779070A070B07052
:1008D00080349105A105B10539F427FF09C0205CDA
:1008E0003F4F4F4F5F4F04C0215C3F4F4F4F5F4F13
:1008F000E0E0F0E02030A0E03A07A0E04A07A0E402
:100900005A0710F0E1E0F0E079018A0127C0603871
:10091000710564F5FB01E158FF4FD801C7018F77DE
:100920009070A070B07080349105A105B10539F4C4
:10093000E7FE0DC080E490E0A0E0B0E004C08FE3EB
:1009400090E0A0E0B0E0E80EF91E0A1F1B1F17FFA1
:1009500005C016950795F794E794319687E01695AC
:100960000795F794E7948A95D1F705C0EE24FF2404
:100970008701EFEFF0E06E2F679566276795902F60
:100980009F77D794DD24D7948E2F8695492F462BB9
:10099000582F5D29B701CA011F910F91FF90EF9069
:1009A000DF900895FC01DB01408151812281622F9B
:1009B0006F7770E0221F2227221F9381892F880FD3
:1009C000822B282F30E0991F9927991F11969C930D
:1009D000119721153105A9F54115510561057105DD
:1009E00011F482E037C082E89FEF13969C938E93B8
:1009F00012979A01AB0167E0220F331F441F551F66
:100A00006A95D1F783E08C930DC0220F331F441FEA
:100A1000551F12968D919C911397019713969C9355
:100A20008E931297203080E0380780E0480780E4FA
:100A3000580758F314962D933D934D935C93179755
:100A400008952F3F310579F4411551056105710570
:100A500019F484E08C93089564FF03C081E08C93C3
:100A600012C01C9210C02F57304013963C932E9307
:100A7000129783E08C9387E0440F551F661F771F02
:100A80008A95D1F7706414964D935D936D937C9322
:100A9000179708951F93DC01FB019C91923008F495
:100AA00047C08081823008F443C0943051F41196DD
:100AB0001C91843099F58181682F70E0611B710968
:100AC0003FC0843021F0923031F48230B9F181811D
:100AD000882389F12DC011961C9111978230F1F075
:100AE00081811817D9F412962D913C911397828128
:100AF00093818217930794F028173907BCF0149656
:100B00008D919D910D90BC91A02D248135814681C0
:100B10005781281739074A075B0718F4112341F05A
:100B20000AC082179307A407B50740F4112319F0F0
:100B300061E070E005C06FEF7FEF02C060E070E041
:100B4000CB011F910895DF93CF9300D000D00F9277
:100B5000CDB7DEB789836A834B838981843008F0FF
:100B6000D5C08A81883008F0D1C08981282F30E033
:100B70003D832C838C819D818130910509F443C094
:100B80002C813D81223031052CF48C819D81009790
:100B900071F0BCC02C813D812230310509F45FC069
:100BA0008C819D818330910509F485C0AFC08B8114
:100BB0008823A9F4AAE3B0E0EAE3F0E08081482FBB
:100BC0008A81282F30E081E090E0022E02C0880F59
:100BD000991F0A94E2F7809584238C9397C0AAE327
:100BE000B0E0EAE3F0E08081482F8A81282F30E0EE
:100BF00081E090E0022E02C0880F991F0A94E2F76C
:100C0000842B8C9383C08B818823A9F4A7E3B0E065
:100C1000E7E3F0E08081482F8A81282F30E081E0EF
:100C200090E0022E02C0880F991F0A94E2F7809587
:100C300084238C936BC0A7E3B0E0E7E3F0E080810E
:100C4000482F8A81282F30E081E090E0022E02C0F8
:100C5000880F991F0A94E2F7842B8C9357C08B81DD
:100C60008823A9F4A4E3B0E0E4E3F0E08081482F16
:100C70008A81282F30E081E090E0022E02C0880FA8
:100C8000991F0A94E2F7809584238C933FC0A4E3D4
:100C9000B0E0E4E3F0E08081482F8A81282F30E043
:100CA00081E090E0022E02C0880F991F0A94E2F7BB
:100CB000842B8C932BC08B818823A9F4A1E3B0E013
:100CC000E1E3F0E08081482F8A81282F30E081E045
:100CD00090E0022E02C0880F991F0A94E2F78095D7
:100CE00084238C9313C0A1E3B0E0E1E3F0E08081C2
:100CF000482F8A81282F30E081E090E0022E02C048
:100D0000880F991F0A94E2F7842B8C930F900F9011
:100D10000F900F900F90CF91DF910895DF93CF93B5
:100D200000D000D00F92CDB7DEB789836A834B83A2
:100D30008981843008F0D5C08A81883008F0D1C01C
:100D40008981282F30E03D832C838C819D818130E7
:100D5000910509F443C02C813D81223031052CF4EA
:100D60008C819D81009771F0BCC02C813D81223027
:100D7000310509F45FC08C819D818330910509F4B0
:100D800085C0AFC08B818823A9F4ABE3B0E0EBE36F
:100D9000F0E08081482F8A81282F30E081E090E0C8
:100DA000022E02C0880F991F0A94E2F780958423CF
:100DB0008C9397C0ABE3B0E0EBE3F0E08081482F89
:100DC0008A81282F30E081E090E0022E02C0880F57
:100DD000991F0A94E2F7842B8C9383C08B8188231C
:100DE000A9F4A8E3B0E0E8E3F0E08081482F8A812D
:100DF000282F30E081E090E0022E02C0880F991F7A
:100E00000A94E2F7809584238C936BC0A8E3B0E04A
:100E1000E8E3F0E08081482F8A81282F30E081E0EC
:100E200090E0022E02C0880F991F0A94E2F7842BEB
:100E30008C9357C08B818823A9F4A5E3B0E0E5E348
:100E4000F0E08081482F8A81282F30E081E090E017
:100E5000022E02C0880F991F0A94E2F7809584231E
:100E60008C933FC0A5E3B0E0E5E3F0E08081482F3C
:100E70008A81282F30E081E090E0022E02C0880FA6
:100E8000991F0A94E2F7842B8C932BC08B818823C3
:100E9000A9F4A2E3B0E0E2E3F0E08081482F8A8188
:100EA000282F30E081E090E0022E02C0880F991FC9
:100EB0000A94E2F7809584238C9313C0A2E3B0E0F8
:100EC000E2E3F0E08081482F8A81282F30E081E042
:100ED00090E0022E02C0880F991F0A94E2F7842B3B
:100EE0008C930F900F900F900F900F90CF91DF91F8
:100EF0000895DF93CF9300D000D00F92CDB7DEB727
:100F00008A836B8319828A81843008F084C08B8144
:100F1000883008F080C08A81282F30E03D832C8300
:100F20004C815D814130510579F18C819D81823008
:100F3000910534F42C813D812115310569F06BC098
:100F40004C815D8142305105B9F18C819D818330A6
:100F5000910509F449C05FC0E9E3F0E08081282FE2
:100F600030E08B81882F90E0A90102C0559547950C
:100F70008A95E2F7CA0181709070882319F081E0A8
:100F8000898349C0198247C0E6E3F0E08081282FB9
:100F900030E08B81882F90E0A90102C055954795DC
:100FA0008A95E2F7CA0181709070882319F081E078
:100FB000898331C019822FC0E3E3F0E08081282FBC
:100FC00030E08B81882F90E0A90102C055954795AC
:100FD0008A95E2F7CA0181709070882319F081E048
:100FE000898319C0198217C0E0E3F0E08081282FBF
:100FF00030E08B81882F90E0A90102C0559547957C
:101000008A95E2F7CA0181709070882319F081E017
:10101000898301C0198289810F900F900F900F90E2
:101020000F90CF91DF910895DF93CF9300D000D040
:10103000CDB7DEB789836A838981843090F5898151
:10104000282F30E03C832B838B819C81813091055C
:10105000D1F02B813C81223031052CF48B819C8195
:10106000009761F01EC02B813C812230310581F058
:101070008B819C818330910581F013C0EAE3F0E01D
:101080008A8180830EC0E7E3F0E08A81808309C013
:10109000E4E3F0E08A81808304C0E1E3F0E08A8148
:1010A00080830F900F900F900F90CF91DF91089554
:1010B000DF93CF9300D000D0CDB7DEB789836A83AA
:1010C0008981853090F58981282F30E03C832B83FE
:1010D0008B819C8181309105D1F02B813C81223024
:1010E00031052CF48B819C81009761F01EC02B810F
:1010F0003C812230310581F08B819C8183309105C8
:1011000081F013C0EBE3F0E08A8180830EC0E8E356
:10111000F0E08A81808309C0E5E3F0E08A81808382
:1011200004C0E2E3F0E08A8180830F900F900F907B
:101130000F90CF91DF910895DF93CF9300D000D02F
:10114000CDB7DEB78A8319828A81843090F58A818F
:10115000282F30E03C832B838B819C81813091054B
:10116000D1F02B813C81223031052CF48B819C8184
:10117000009761F01EC02B813C812230310581F047
:101180008B819C818330910581F013C0E9E3F0E00D
:10119000808189830EC0E6E3F0E08081898309C005
:1011A000E3E3F0E08081898304C0E0E3F0E0808144
:1011B000898389810F900F900F900F90CF91DF91CD
:1011C0000895DF93CF93CDB7DEB765970FB6F89448
:1011D000DEBF0FBECDBFCE0101969A8B898BEEE2AA
:1011E000F1E0FC8BEB8BF0E1FD8BEB89FC8900805F
:1011F0008B899C8901969C8B8B8BE989FA8900826B
:1012000089899A8901969A8B898B9D8991509D8BAA
:10121000ED89EE2351F7CE0101960E94C2168CEEA5
:101220009AE00E949D140E94220CAFE5B0E0EFE529
:10123000F0E0808180688C9365960FB6F894DEBFED
:101240000FBECDBFCF91DF910895DF93CF93CDB780
:10125000DEB76F970FB6F894DEBF0FBECDBF198A09
:101260000E94E1088989882379F5CE0142960E947F
:10127000310B0E943D188031E1F78EE40E94261860
:101280000E943D188031E1F7CE0142960E944C1831
:101290000E943D188031E1F7CE01429607960E94E8
:1012A0004C1880E10E9426180E943D188F878F8578
:1012B000863411F4198AD6CF8F85843519F481E0EC
:1012C000898BD0CF198ACECF8989813009F096C019
:1012D0000E94591180E060E00E94C51080E690E015
:1012E0000E949C1081E060E00E94C5108FE690E0B3
:1012F0000E949C100E947A15888B88898B3219F481
:1013000085E0898B08C088898D3219F483E0898B48
:1013100002C081E0898B80E090E0A6E9B3E48B878E
:101320009C87AD87BE876B857C858D859E8520E0FB
:1013300030E04AEF54E40E941F02DC01CB018F83AE
:101340009887A987BA876F81788589859A8520E0F3
:1013500030E040E85FE30E94790388232CF481E0C9
:1013600090E09E838D833FC06F81788589859A85C3
:1013700020E03FEF4FE757E40E94190318164CF5A1
:101380006B857C858D859E8520E030E040E251E4D0
:101390000E941F02DC01CB01BC01CD010E9449006B
:1013A000DC01CB019E838D830FC088EC90E09C8391
:1013B0008B838B819C810197F1F79C838B838D813B
:1013C0009E8101979E838D838D819E81009769F711
:1013D00049CF6F81788589859A850E944900DC0113
:1013E000CB019E838D838D819E819A8389838981A0
:1013F0009A810197F1F79A83898334CF898985305F
:1014000009F08FC01F860E94591180E060E00E94A1
:10141000C51080E890E00E949C1081E060E00E948E
:10142000C510CE0142960E94620B0E943D18803189
:10143000E1F783E40E9426180E943D188031E1F70D
:10144000CE0142960E944C1880E10E9426180E940C
:101450003D188F878F85863449F580913E018F5FD7
:1014600080933E0180913E01833018F485E0898BA2
:10147000F9CE0E943D188031E1F783E50E942618DD
:101480000E94591181E990E00E949C1081E060E087
:101490000E94C5108FE990E00E949C108CE30E948E
:1014A000F80A81E0898B10923E01DCCE8F8584356D
:1014B000A9F50E943D188031E1F789E40E942618C1
:1014C0000E94591180EB90E00E949C1081E060E046
:1014D0000E94C5108FEB90E00E949C108FE00E944C
:1014E000F80A0E9459118AEC90E00E949C1083E057
:1014F0000E94F80A0E94591189ED90E00E949C1008
:1015000081E060E00E94C5108FEB90E00E949C108B
:101510008FE00E94F80A81E0898BA4CE85E0898B58
:10152000A1CE8989833009F09DCE0E94591186EEA3
:1015300090E00E949C1081E060E00E94C510CE0106
:1015400042960E94620B0E943D188031E1F783E4CD
:101550000E9426180E943D188031E1F7CE01429684
:101560000E944C1880E10E9426180E943D188F8727
:101570008F85863449F580913E018F5F80933E01CF
:1015800080913E01833018F483E0898B6BCE0E94FA
:101590003D188031E1F783E50E9426180E94591119
:1015A00081E990E00E949C1081E060E00E94C510FB
:1015B0008FE990E00E949C108CE30E94F80A81E081
:1015C000898B10923E014ECE8F85843511F4198A95
:1015D00049CE83E0898B46CEDF93CF93CDB7DEB77C
:1015E00080913F018F5F80933F01CF91DF910895FC
:1015F000DF93CF930F92CDB7DEB789838981833094
:1016000069F48DE191E00E94801380913F01813067
:10161000E1F710923F010E94AF141FC089818F3003
:1016200069F48DE191E00E94801380913F01853043
:10163000E1F710923F010E94AF140FC089818C33F3
:1016400061F48DE191E00E94801380913F0184312B
:10165000E1F710923F010E94AF140F90CF91DF91FC
:101660000895DF93CF9300D0CDB7DEB79A838983F7
:101670000E94591180E060E00E94C51086EF90E062
:101680000E949C1081E060E00E94C51089819A81CF
:101690000E94620B0E94591180E060E00E94C51018
:1016A00086E091E00E949C1081E060E00E94C510FD
:1016B00089819A8107960E94620B0F900F90CF91BB
:1016C000DF9108950F931F93DF93CF93CDB7DEB7CC
:1016D00061970FB6F894DEBF0FBECDBF998B888B94
:1016E0001F868F85282F30E0888999898C01020F09
:1016F000131F0E947A15F80180838F858530D8F0FA
:101700008F85282F30E088899989FC01E20FF31F2B
:1017100080818D3381F488899989FC013696108205
:1017200061960FB6F894DEBF0FBECDBFCF91DF91AB
:101730001F910F9108958F85282F30E0888999890E
:10174000FC01E20FF31F80818A3048F48F858530D9
:1017500030F48AE20E94AD0E8F858F5F8F8780E024
:1017600090E0AAEFB3E48B879C87AD87BE876B853B
:101770007C858D859E8520E030E04AEF54E40E9410
:101780001F02DC01CB018F839887A987BA876F81FD
:10179000788589859A8520E030E040E85FE30E9403
:1017A000790388232CF481E090E09E838D833FC0F1
:1017B0006F81788589859A8520E03FEF4FE757E470
:1017C0000E94190318164CF56B857C858D859E85C6
:1017D00020E030E040E251E40E941F02DC01CB0136
:1017E000BC01CD010E944900DC01CB019E838D83A9
:1017F0000FC088EC90E09C838B838B819C81019748
:10180000F1F79C838B838D819E8101979E838D83CD
:101810008D819E81009769F764CF6F817885898576
:101820009A850E944900DC01CB019E838D838D81C6
:101830009E819A83898389819A810197F1F79A839E
:1018400089834FCFDF93CF93CDB7DEB72E970FB6F7
:10185000F894DEBF0FBECDBF82E066E041E00E949B
:10186000A30582E067E041E00E94A30580E090E0EC
:10187000A0EAB1E48B879C87AD87BE876B857C85AA
:101880008D859E8520E030E04AEF54E40E941F02DF
:10189000DC01CB018F839887A987BA876F81788510
:1018A00089859A8520E030E040E85FE30E94790373
:1018B00088232CF481E090E09E838D833FC06F816C
:1018C000788589859A8520E03FEF4FE757E40E94AD
:1018D000190318164CF56B857C858D859E8520E057
:1018E00030E040E251E40E941F02DC01CB01BC0168
:1018F000CD010E944900DC01CB019E838D830FC086
:1019000088EC90E09C838B838B819C810197F1F71D
:101910009C838B838D819E8101979E838D838D8196
:101920009E81009769F714C06F81788589859A85B3
:101930000E944900DC01CB019E838D838D819E81B5
:101940009A83898389819A810197F1F79A838983A0
:1019500080E06FEF0E94140888E30E94BE0C8CE0C8
:101960000E94BE0C81E00E94BE0C2E960FB6F89429
:10197000DEBF0FBECDBFCF91DF910895DF93CF9330
:10198000CDB7DEB7E9970FB6F894DEBF0FBECDBF77
:1019900089AF82E066E040E00E948E0680E090E041
:1019A000A0E8BFE38DAB9EABAFABB8AF6DA97EA98E
:1019B0008FA998AD20E030E04AEF54E40E941F0266
:1019C000DC01CB0189AB9AABABABBCAB69A97AA903
:1019D0008BA99CA920E030E040E85FE30E947903F6
:1019E00088232CF481E090E098AB8FA73FC069A9D1
:1019F0007AA98BA99CA920E03FEF4FE757E40E940A
:101A0000190318164CF56DA97EA98FA998AD20E091
:101A100030E040E251E40E941F02DC01CB01BC0136
:101A2000CD010E944900DC01CB0198AB8FA70FC00C
:101A300088EC90E09EA78DA78DA59EA50197F1F754
:101A40009EA78DA78FA598A9019798AB8FA78FA563
:101A500098A9009769F714C069A97AA98BA99CA9CC
:101A60000E944900DC01CB0198AB8FA78FA598A9F4
:101A70009CA78BA78BA59CA50197F1F79CA78BA78B
:101A800082E067E041E00E948E0680E090E0A0E8FE
:101A9000BFE38FA398A7A9A7BAA76FA178A589A527
:101AA0009AA520E030E04AEF54E40E941F02DC01D6
:101AB000CB018BA39CA3ADA3BEA36BA17CA18DA1E5
:101AC0009EA120E030E040E85FE30E947903882394
:101AD0002CF481E090E09AA389A33FC06BA17CA184
:101AE0008DA19EA120E03FEF4FE757E40E9419032C
:101AF00018164CF56FA178A589A59AA520E030E0CD
:101B000040E251E40E941F02DC01CB01BC01CD0187
:101B10000E944900DC01CB019AA389A30FC088EC85
:101B200090E098A38F8F8F8D98A10197F1F798A3DC
:101B30008F8F89A19AA101979AA389A389A19AA1BC
:101B4000009769F714C06BA17CA18DA19EA10E9492
:101B50004900DC01CB019AA389A389A19AA19E8F98
:101B60008D8F8D8D9E8D0197F1F79E8F8D8F80E0EB
:101B700069AD0E94580880E090E0A0E8BFE3898F3B
:101B80009A8FAB8FBC8F698D7A8D8B8D9C8D20E069
:101B900030E04AEF54E40E941F02DC01CB018D8B40
:101BA0009E8BAF8BB88F6D897E898F89988D20E051
:101BB00030E040E85FE30E94790388232CF481E061
:101BC00090E09C8B8B8B3FC06D897E898F89988D2F
:101BD00020E03FEF4FE757E40E94190318164CF539
:101BE000698D7A8D8B8D9C8D20E030E040E251E450
:101BF0000E941F02DC01CB01BC01CD010E94490003
:101C0000DC01CB019C8B8B8B0FC088EC90E09A8B16
:101C1000898B89899A890197F1F79A8B898B8B89AE
:101C20009C8901979C8B8B8B8B899C89009769F78A
:101C300014C06D897E898F89988D0E944900DC01CE
:101C4000CB019C8B8B8B8B899C89988B8F878F8505
:101C500098890197F1F7988B8F8782E067E040E0E1
:101C60000E948E0680E090E0A0E8BFE38B879C870F
:101C7000AD87BE876B857C858D859E8520E030E0B5
:101C80004AEF54E40E941F02DC01CB018F83988746
:101C9000A987BA876F81788589859A8520E030E0A9
:101CA00040E85FE30E94790388232CF481E090E010
:101CB0009E838D833FC06F81788589859A8520E0DA
:101CC0003FEF4FE757E40E94190318164CF56B8558
:101CD0007C858D859E8520E030E040E251E40E94C5
:101CE0001F02DC01CB01BC01CD010E944900DC01D7
:101CF000CB019E838D830FC088EC90E09C838B8307
:101D00008B819C810197F1F79C838B838D819E81D0
:101D100001979E838D838D819E81009769F714C002
:101D20006F81788589859A850E944900DC01CB0105
:101D30009E838D838D819E819A83898389819A81F7
:101D40000197F1F79A838983E9960FB6F894DEBF7D
:101D50000FBECDBFCF91DF910895DF93CF93CDB765
:101D6000DEB7E9970FB6F894DEBF0FBECDBF89AFDF
:101D700082E066E041E00E948E0680E090E0A0E80C
:101D8000BFE38DAB9EABAFABB8AF6DA97EA98FA9FA
:101D900098AD20E030E04AEF54E40E941F02DC01DD
:101DA000CB0189AB9AABABABBCAB69A97AA98BA9C8
:101DB0009CA920E030E040E85FE30E94790388239B
:101DC0002CF481E090E098AB8FA73FC069A97AA975
:101DD0008BA99CA920E03FEF4FE757E40E9419032D
:101DE00018164CF56DA97EA98FA998AD20E030E0BA
:101DF00040E251E40E941F02DC01CB01BC01CD0195
:101E00000E944900DC01CB0198AB8FA70FC088EC82
:101E100090E09EA78DA78DA59EA50197F1F79EA79F
:101E20008DA78FA598A9019798AB8FA78FA598A983
:101E3000009769F714C069A97AA98BA99CA90E9487
:101E40004900DC01CB0198AB8FA78FA598A99CA76F
:101E50008BA78BA59CA50197F1F79CA78BA782E088
:101E600067E041E00E948E0680E090E0A0E8BFE3DA
:101E70008FA398A7A9A7BAA76FA178A589A59AA5A6
:101E800020E030E04AEF54E40E941F02DC01CB0165
:101E90008BA39CA3ADA3BEA36BA17CA18DA19EA18E
:101EA00020E030E040E85FE30E94790388232CF4CF
:101EB00081E090E09AA389A33FC06BA17CA18DA192
:101EC0009EA120E03FEF4FE757E40E941903181648
:101ED0004CF56FA178A589A59AA520E030E040E2F5
:101EE00051E40E941F02DC01CB01BC01CD010E9424
:101EF0004900DC01CB019AA389A30FC088EC90E0D4
:101F000098A38F8F8F8D98A10197F1F798A38F8F4A
:101F100089A19AA101979AA389A389A19AA100975F
:101F200069F714C06BA17CA18DA19EA10E944900FC
:101F3000DC01CB019AA389A389A19AA19E8F8D8FE1
:101F40008D8D9E8D0197F1F79E8F8D8F80E069AD0D
:101F50000E94580880E090E0A0E8BFE3898F9A8F44
:101F6000AB8FBC8F698D7A8D8B8D9C8D20E030E09E
:101F70004AEF54E40E941F02DC01CB018D8B9E8B43
:101F8000AF8BB88F6D897E898F89988D20E030E086
:101F900040E85FE30E94790388232CF481E090E01D
:101FA0009C8B8B8B3FC06D897E898F89988D20E0BB
:101FB0003FEF4FE757E40E94190318164CF5698D5F
:101FC0007A8D8B8D9C8D20E030E040E251E40E94C0
:101FD0001F02DC01CB01BC01CD010E944900DC01E4
:101FE000CB019C8B8B8B0FC088EC90E09A8B898BFC
:101FF00089899A890197F1F79A8B898B8B899C89BA
:1020000001979C8B8B8B8B899C89009769F714C0F7
:102010006D897E898F89988D0E944900DC01CB01F2
:102020009C8B8B8B8B899C89988B8F878F859889CC
:102030000197F1F7988B8F8782E067E040E00E947C
:102040008E0680E090E0A0E8BFE38B879C87AD8799
:10205000BE876B857C858D859E8520E030E04AEFCC
:1020600054E40E941F02DC01CB018F839887A9876B
:10207000BA876F81788589859A8520E030E040E8CD
:102080005FE30E94790388232CF481E090E09E8333
:102090008D833FC06F81788589859A8520E03FEFE9
:1020A0004FE757E40E94190318164CF56B857C85A1
:1020B0008D859E8520E030E040E251E40E941F02C1
:1020C000DC01CB01BC01CD010E944900DC01CB0148
:1020D0009E838D830FC088EC90E09C838B838B81E3
:1020E0009C810197F1F79C838B838D819E81019761
:1020F0009E838D838D819E81009769F714C06F81C7
:10210000788589859A850E944900DC01CB019E83F0
:102110008D838D819E819A83898389819A8101979C
:10212000F1F79A838983E9960FB6F894DEBF0FBE64
:10213000CDBFCF91DF910895DF93CF9300D00F9261
:10214000CDB7DEB79B838A8319820EC08981282F81
:1021500030E08A819B81FC01E20FF31F80810E94A5
:10216000AD0E89818F5F89838981282F30E08A8134
:102170009B81FC01E20FF31F8081882339F70F90C8
:102180000F900F90CF91DF910895DF93CF9300D000
:1021900000D00F92CDB7DEB78A836B838A81282F58
:1021A00030E03D832C838C819D8181309105C1F08D
:1021B0002C813D81223031052CF48C819D8100974A
:1021C00061F019C02C813D812230310569F08C818C
:1021D0009D818330910561F00EC08B8189830BC096
:1021E0008B81805C898307C08B81805F898303C07A
:1021F0008B81805B8983898180680E94BE0C0F90EF
:102200000F900F900F900F90CF91DF910895DF9373
:10221000CF9300D000D0CDB7DEB789836A835C83CB
:102220004B8389816A810E94C5108B819C810E94A9
:102230009C100F900F900F900F90CF91DF91089509
:10224000DF93CF9300D00F92CDB7DEB789836A8337
:102250004B8389816A810E94C5108B810E94AD0EDB
:102260000F900F900F90CF91DF910895DF93CF9350
:10227000CDB7DEB762970FB6F894DEBF0FBECDBF05
:102280009A8B898B89899A899E012F5F3F4FB9016B
:102290004AE050E00E943019CE0101960E949C1045
:1022A00062960FB6F894DEBF0FBECDBFCF91DF911F
:1022B0000895DF93CF93CDB7DEB781E00E94BE0CC7
:1022C000CF91DF9108951F920F920FB60F921124B4
:1022D0002F933F934F935F936F937F938F939F932E
:1022E000AF93BF93EF93FF93DF93CF93CDB7DEB759
:1022F0008091400190914101009729F0E0914001C7
:10230000F09141010995CF91DF91FF91EF91BF913C
:10231000AF919F918F917F916F915F914F913F917D
:102320002F910F900FBE0F901F9018951F920F9234
:102330000FB60F9211242F933F934F935F936F9398
:102340007F938F939F93AF93BF93EF93FF93DF930D
:10235000CF93CDB7DEB780914001909141010097B6
:1023600029F0E0914001F09141010995CF91DF9171
:10237000FF91EF91BF91AF919F918F917F916F915D
:102380005F914F913F912F910F900FBE0F901F9033
:1023900018951F920F920FB60F9211242F933F930F
:1023A0004F935F936F937F938F939F93AF93BF935D
:1023B000EF93FF93DF93CF93CDB7DEB780914201C8
:1023C00090914301009729F0E0914201F09143017F
:1023D0000995CF91DF91FF91EF91BF91AF919F91BF
:1023E0008F917F916F915F914F913F912F910F90BE
:1023F0000FBE0F901F9018951F920F920FB60F925D
:1024000011242F933F934F935F936F937F938F93F9
:102410009F93AF93BF93EF93FF93DF93CF93CDB78A
:10242000DEB78091420190914301009729F0E0913D
:102430004201F09143010995CF91DF91FF91EF9116
:10244000BF91AF919F918F917F916F915F914F91CC
:102450003F912F910F900FBE0F901F9018951F92D4
:102460000F920FB60F9211242F933F934F935F93C8
:102470006F937F938F939F93AF93BF93EF93FF934C
:10248000DF93CF93CDB7DEB78091440190914501A2
:10249000009729F0E0914401F09145010995CF9111
:1024A000DF91FF91EF91BF91AF919F918F917F91BC
:1024B0006F915F914F913F912F910F900FBE0F90B1
:1024C0001F9018951F920F920FB60F9211242F9301
:1024D0003F934F935F936F937F938F939F93AF93AC
:1024E000BF93EF93FF93DF93CF93CDB7DEB7809188
:1024F000440190914501009729F0E0914401F09149
:1025000045010995CF91DF91FF91EF91BF91AF9177
:102510009F918F917F916F915F914F913F912F91FB
:102520000F900FBE0F901F901895DF93CF9300D0A0
:10253000CDB7DEB79A838983A3E5B0E0E3E5F0E0A9
:102540008081282F2F77E981FA818181882F90E07F
:102550009695982F882797958795822B8C93A3E53E
:10256000B0E0E3E5F0E08081282F2F7BE981FA815C
:102570008281882F90E09695982F88279795879548
:1025800095958795822B8C93A3E5B0E0E3E5F0E089
:102590008081282F277FE981FA8182818695882F83
:1025A00090E0880F991F880F991F880F991F822B21
:1025B0008C93A3E5B0E0E3E5F0E08081282F2F7C49
:1025C000E981FA818381882F90E082959295907FAE
:1025D0009827807F9827822B8C93A3E5B0E0E3E5D2
:1025E000F0E08081982F987FE981FA818081892BA2
:1025F0008C93A2E5B0E0E981FA8186818C93ACE509
:10260000B0E0E981FA8187818C93A9E5B0E0E9E542
:10261000F0E08081282F2D7FE981FA818481882F45
:1026200090E0880F991F822B8C93A9E5B0E0E9E533
:10263000F0E08081982F9E7FE981FA818581892B46
:102640008C930F900F90CF91DF910895DF93CF93EC
:10265000CDB7DEB7E3E5F0E01082A9E5B0E0E9E54B
:10266000F0E080818C7F8C93CF91DF910895DF9390
:10267000CF9300D0CDB7DEB79A83898389819A81C1
:1026800090934101809340010F900F90CF91DF9183
:102690000895DF93CF9300D0CDB7DEB79A838983B7
:1026A000E2E5F0E0108281E063E041E00E94A305F2
:1026B000E3E5F0E088E68083A3E5B0E0E3E5F0E061
:1026C0009081E981FA818081892B8C930F900F9002
:1026D000CF91DF910895DF93CF9300D0CDB7DEB7D0
:1026E0009A838983E2E5F0E01082ACE5B0E0E9810D
:1026F000FA8180818C930F900F90CF91DF91089594
:10270000DF93CF9300D0CDB7DEB79A838983AFE450
:10271000B0E0EFE4F0E08081282F2F73E981FA81A7
:102720008081882F90E00024969587950794969550
:1027300087950794982F802D822B8C93AFE4B0E07F
:10274000EFE4F0E08081282F2F7CE981FA818181FC
:10275000882F90E082959295907F9827807F982788
:10276000822B8C93AFE4B0E0EFE4F0E08081282F7F
:10277000277FE981FA818281882F90E0880F991F55
:10278000880F991F880F991F822B8C93AFE4B0E0BC
:10279000EFE4F0E08081282F2B7FE981FA818381AB
:1027A000882F90E0880F991F880F991F822B8C9398
:1027B000AFE4B0E0EFE4F0E08081282F2C7FE981E6
:1027C000FA818781882F90E0002496958795079459
:1027D000969587950794982F802D082E892F000CA9
:1027E000881F990B000C881F991F822B8C93AEE4D5
:1027F000B0E0EEE4F0E08081282F277EE981FA81C5
:10280000878186958695882F90E0880F991F880F7D
:10281000991F880F991F822B8C93AEE4B0E0EEE4F1
:10282000F0E08081282F2F77E981FA818581882F38
:1028300090E09695982F882797958795822B8C9373
:10284000AEE4B0E0EEE4F0E08081282F2F7BE98158
:10285000FA818481882F90E00024969587950794CB
:10286000969587950794982F802D822B8C93AEE4B4
:10287000B0E0EEE4F0E08081982F987FE981FA8162
:102880008681892B8C93A9E5B0E0E9E5F0E08081B1
:10289000282F2F7EE981FA818085882F90E082950C
:1028A0009295907F9827807F9827822B8C93A9E51B
:1028B000B0E0E9E5F0E08081282F277FE981FA8107
:1028C0008185882F90E0880F991F880F991F880FA6
:1028D000991F822B8C93A9E5B0E0E9E5F0E08081B7
:1028E000282F2B7FE981FA818285882F90E0880F3D
:1028F000991F880F991F822B8C93ACE4B0E0E9817B
:10290000FA818385948511969C938E93AAE4B0E016
:10291000E981FA818585968511969C938E93A8E42A
:10292000B0E0E981FA818785908911969C938E9316
:102930000F900F90CF91DF910895DF93CF9300D048
:10294000CDB7DEB79A83898389819A8190934301B9
:10295000809342010F900F90CF91DF910895DF9304
:10296000CF93CDB7DEB7EFE4F0E01082EEE4F0E015
:102970001082A9E5B0E0E9E5F0E08081837C8C93EA
:10298000CF91DF910895DF93CF9300D0CDB7DEB71D
:102990009A838983A5E4B0E0E5E4F0E08081282F04
:1029A0002F77E981FA818181882F90E09695982F81
:1029B000882797958795822B8C93A5E4B0E0E5E472
:1029C000F0E08081282F2F7BE981FA818281882F96
:1029D00090E09695982F8827979587959595879558
:1029E000822B8C93A5E4B0E0E5E4F0E08081282F11
:1029F000277FE981FA8182818695882F90E0880F70
:102A0000991F880F991F880F991F822B8C93A5E41B
:102A1000B0E0E5E4F0E08081282F2F7CE981FA81A5
:102A20008381882F90E082959295907F9827807F70
:102A30009827822B8C93A5E4B0E0E5E4F0E0808158
:102A4000982F987FE981FA818081892B8C93A2E568
:102A5000B0E0E981FA8186818C93A3E4B0E0E9815A
:102A6000FA8187818C93A9E5B0E0E9E5F0E0808107
:102A7000282F2F77E981FA818481882F90E096951D
:102A8000982F882797958795822B8C93A9E5B0E09E
:102A9000E9E5F0E08081982F9F7BE981FA818581CB
:102AA000892B8C930F900F90CF91DF910895DF9336
:102AB000CF93CDB7DEB7E5E4F0E01082A9E5B0E052
:102AC000E9E5F0E080818F738C93CF91DF910895D9
:102AD000DF93CF9300D0CDB7DEB79A838983898106
:102AE0009A8190934501809344010F900F90CF916C
:102AF000DF910895DF93CF9300D0CDB7DEB781E0AB
:102B000064E040E00E94A30581E065E040E00E94AF
:102B1000A30581E066E040E00E94A30581E067E054
:102B200040E00E94A30581E060E040E00E94A30530
:102B300081E061E040E00E94A30581E062E040E0C6
:102B40000E94A30581E063E040E00E94A30581E0CC
:102B500060E041E00E948E0681E061E041E00E9479
:102B60008E0681E062E041E00E948E0681E063E033
:102B700041E00E948E0681E064E041E00E948E0602
:102B800081E065E041E00E948E0681E066E041E080
:102B90000E948E0681E067E041E00E948E06198265
:102BA00043C08981982F9C5F81E0692F41E00E949A
:102BB000A3058981982F9C5F81E0692F40E00E94E6
:102BC0008E061A821BC081E06A810E9479078823E1
:102BD00091F48A81882F90E0880F991F880F991FA0
:102BE000982F8981890F8F5F0E9419160F900F907F
:102BF000CF91DF9108958A818F5F8A838A818430A3
:102C000010F38981982F9C5F81E0692F40E00E943A
:102C1000A3058981982F9C5F81E0692F41E00E9484
:102C20008E0689818F5F89838981843008F4B9CFCA
:102C3000B6CFDF93CF9300D000D00F92CDB7DEB7E1
:102C400089838981282F30E03C832B838B819C8171
:102C50008830910509F470C02B813C812930310501
:102C60005CF58B819C818430910509F459C02B81DE
:102C70003C81253031059CF48B819C81823091050B
:102C800009F448C02B813C81233031050CF045C04C
:102C90008B819C818130910509F439C067C02B81FB
:102CA0003C812630310509F441C08B819C818730FD
:102CB00091050CF03EC037C02B813C812C30310592
:102CC00009F446C08B819C818D3091055CF42B8189
:102CD0003C812A303105B1F18B819C818B3091058B
:102CE000A4F52DC02B813C812E303105B9F18B81AB
:102CF0009C818E3091057CF12B813C812F303105F8
:102D000079F18B819C818031910569F12FC097E029
:102D10009A832DC028E02A832AC039E03A8327C04D
:102D20008FE28A8324C094E09A8321C025E02A831D
:102D30001EC036E03A831BC08AE28A8318C091E045
:102D40009A8315C022E02A8312C033E03A830FC071
:102D50008DE28A830CC09DE09A8309C01A8207C065
:102D60002DE32A8304C03BE23A8301C002C08A817A
:102D70008D838D810F900F900F900F900F90CF91BA
:102D8000DF910895EF92FF920F931F93DF93CF93FC
:102D900000D000D0CDB7DEB79C838B831A82198216
:102DA000ABE2B0E0EBE2F0E08081282F2D7FEB81F9
:102DB000FC818081882F90E0880F991F822B8C9353
:102DC000AAE2B0E0EAE2F0E08081282F2F77EB81E1
:102DD000FC818181882F90E09695982F8827979580
:102DE0008795822B8C93AAE2B0E0EAE2F0E0808142
:102DF000282F2F77EB81FC818281882F90E000249F
:102E0000969587950794969587950794982F802D8A
:102E1000822B8C93AAE2B0E0EAE2F0E08081282FD6
:102E20002F7DEB81FC818381882F90E0880F991F93
:102E300082959295907F9827807F9827822B8C93FC
:102E4000AAE2B0E0EAE2F0E08081282F2F7EEB8159
:102E5000FC818481882F90E082959295907F9827BD
:102E6000807F9827822B8C93AAE2B0E0EAE2F0E020
:102E70008081282F277FEB81FC818581882F90E03E
:102E8000880F991F880F991F880F991F822B8C9389
:102E9000AAE2B0E0EAE2F0E08081282F2B7FEB810C
:102EA000FC81868186958695882F90E0880F991FF2
:102EB000880F991F822B8C93A0E4B0E0E0E4F0E04F
:102EC0008081282F297FEB81FC818681882F90E0EB
:102ED0000024969587950794969587950794982F43
:102EE000802D959587959595879595958795959539
:102EF000879595958795822B8C93A0E4B0E0E0E4CC
:102F0000F0E08081282F2F77EB81FC818781882F4B
:102F100090E09695982F882797958795822B8C938C
:102F2000A0E4B0E0E0E4F0E08081282F2F7BEB818B
:102F3000FC818085882F90E00024969587950794E2
:102F4000969587950794982F802D822B8C93A0E4DB
:102F5000B0E0E0E4F0E08081282F2F7CEB81FC8161
:102F60008185882F90E082959295907F9827807F29
:102F70009827822B8C93A0E4B0E0E0E4F0E080811D
:102F8000282F277FEB81FC818285882F90E0880F96
:102F9000991F880F991F880F991F822B8C93A0E48B
:102FA000B0E0E0E4F0E08081982F9E7FEB81FC812F
:102FB0008385892B8C93EB81FC818081882F90E025
:102FC0000196AA2797FDA095BA2F20E032E14AE7A3
:102FD00050E0BC01CD010E94B8187B018C01EB814F
:102FE000FC8184859585A685B785880F991FAA1FC2
:102FF000BB1F880F991FAA1FBB1F880F991FAA1FED
:10300000BB1F880F991FAA1FBB1F9C01AD01C801E0
:10301000B7010E94D718DA01C90101979A83898301
:10302000E0E4F0E089819A81892F99278083E9E2A1
:10303000F0E0898180830F900F900F900F90CF91D7
:10304000DF911F910F91FF90EF900895DF93CF9341
:103050000F92CDB7DEB78983EBE2F0E08081882F55
:1030600090E0807290700097B9F3ECE2F0E0898113
:1030700080830F90CF91DF910895DF93CF93CDB7E9
:10308000DEB7EBE2F0E080818823DCF7ECE2F0E0F1
:103090008081CF91DF910895DF93CF9300D00F927D
:1030A000CDB7DEB79B838A8319820EC08981282F12
:1030B00030E08A819B81FC01E20FF31F80810E9436
:1030C000261889818F5F89838981282F30E08A8142
:1030D0009B81FC01E20FF31F8081882339F70F9059
:1030E0000F900F90CF91DF9108950F931F93DF936F
:1030F000CF9300D00F92CDB7DEB79B838A8319821E
:103100008981282F30E08A819B818C01020F131F57
:103110000E943D18F80180830FC089818F5F8983E9
:103120008981282F30E08A819B818C01020F131F37
:103130000E943D18F80180838981282F30E08A8120
:103140009B81FC01E20FF31F80818D3331F7898170
:10315000282F30E08A819B81FC01E20FF31F10824F
:103160000F900F900F90CF91DF911F910F910895C5
:10317000629FD001739FF001829FE00DF11D649F5B
:10318000E00DF11D929FF00D839FF00D749FF00DE7
:10319000659FF00D9927729FB00DE11DF91F639F88
:1031A000B00DE11DF91FBD01CF0111240895A1E269
:1031B0001A2EAA1BBB1BFD010DC0AA1FBB1FEE1FB1
:1031C000FF1FA217B307E407F50720F0A21BB30BFC
:1031D000E40BF50B661F771F881F991F1A9469F778
:1031E00060957095809590959B01AC01BD01CF01D4
:1031F00008952F923F924F925F926F927F928F929B
:103200009F92AF92BF92CF92DF92EF92FF920F9375
:103210001F93CF93DF93CDB7DEB7CA1BDB0B0FB67F
:10322000F894DEBF0FBECDBF09942A88398848883C
:103230005F846E847D848C849B84AA84B984C884D2
:10324000DF80EE80FD800C811B81AA81B981CE0FC9
:10325000D11D0FB6F894DEBF0FBECDBFED010895AE
:10326000FB019F01E8944230C4F04532B4F44A3087
:1032700029F497FB1EF4909581959F4F642F772733
:103280000E946119805D8A330CF0895D8193CB01C6
:103290000097A1F716F45DE251931082C9010C94D6
:1032A0005119DC01FC01672F71917723E1F7329707
:1032B00004C07C916D9370836291AE17BF07C8F311
:1032C0000895AA1BBB1B51E107C0AA1FBB1FA6176D
:1032D000B70710F0A61BB70B881F991F5A95A9F7BF
:0E32E00080959095BC01CD010895F894FFCF24
:1032EE002B203A204F70656E20446F6F7220002D98
:1032FE00203A204368616E67652050617373200029
:10330E00456E746572207468652050617373203A3F
:10331E00002057726F6E6720506173732120004139
:10332E006C61726D2041637469766174656421000D
:10333E00556E6C6F636B696E672074686520002034
:10334E0020446F6F722E2E2E2E00446F6F722055FA
:10335E006E6C6F636B656421006C6F636B696E6777
:10336E00207468652000456E746572204F4C4420B1
:10337E00504153533A00456E746572204E65772066
:10338E00506173733A0052652D456E7465722070EC
:10339E006173733A0000000000000000000000019D
:1033AE00000000050401000000008D5B000001001C
:0E33BE00000001010301000000008025000056
:00000001FF
